:020000040800F2
:1000000000000120050300080B030008110300088D
:1000100033030008390300085B03000800000000F8
:100020000000000000000000000000007D03000848
:100030008303000800000000890300088F03000804
:10004000AD030008AD030008AD030008AD030008D0
:10005000AD030008AD030008AD030008AD030008C0
:10006000AD030008AD030008AD030008AD030008B0
:10007000AD030008AD030008AD030008AD030008A0
:10008000AD030008AD030008AD0300080000000048
:10009000000000000000000000000000AD030008A8
:1000A000AD030008AD030008AD030008AD03000870
:1000B000AD030008AD030008AD030008AD03000860
:1000C000AD030008AD030008AD030008AD03000850
:1000D000AD030008AD030008AD03000800000000F8
:1000E000AD030008AD030008AD03000800000000E8
:1000F000000000000000000000000000AD03000848
:1001000000000000AD030008AD030008AD030008C7
:1001100000000000000000000000000000000000DF
:10012000AD030008AD030008AD030008AD030008EF
:10013000AD03000800000000000000000000000007
:10014000000000000000000000000000AD030008F7
:10015000AD030008AD030008AD030008AD030008BF
:10016000AD030008AD03000800000000000000001F
:10017000000000000000000000000000000000007F
:1001800000000000AD0300080000000000000000B7
:10019000AD03000880B596B000AF00F037F94F4BC3
:1001A0007B6524E07B6D1A1D7A651B683B647B6D63
:1001B0001A1D7A651B68FB637B6D1A1D7A651B68C7
:1001C000BB633B6C7B63FB6B3B63BB6BFB623B6B5F
:1001D000BB6207E07A6B131D7B63BB6A191DB962B2
:1001E00012681A60FA6ABB6A9A42F3D800BF7B6D44
:1001F0003B4A9342D6D33B4B3B651AE03B6D1A1DFD
:100200003A651B68BB643B6D1A1D3A651B687B64CD
:10021000BB6C7B627B6C3B627B6AFB6104E0FB69CD
:100220001A1DFA6100221A603A6AFB699A42F6D8EE
:1002300000BF3B6D2C4A9342E0D300F0F5F83A1D25
:1002400007F108031146184600F0CEF8274A284B5C
:10025000D31A9B103B610023FB6007E0244AFB6834
:1002600052F823309847FB680133FB603A69FB681A
:100270009A42F3DC1F4A204BD31A9B103B610023A8
:10028000FB6007E01C4AFB6852F823309847FB6884
:100290000133FB603A69FB689A42F3DC00BFBB683C
:1002A0007A681146184600F06BF9F864134A144B4B
:1002B000D31A9B10BB61BB697B6108E07B69013B82
:1002C0000F4A52F8233098477B69013B7B617B6979
:1002D000002BF3DC00BFF86C00F080F8B4030008DA
:1002E000CC030008CC030008DC030008DC03000892
:1002F000DC030008DC030008DC030008DC03000862
:10030000DC0300082548004700BF80B400AFFEE7CB
:100310001EF0040F0CBFEFF30880EFF30980714665
:100320001F4A104700BF80B483B000AF78603960C7
:10033000FEE780B400AFFEE71EF0040F0CBFEFF342
:100340000880EFF309807146164A104700BF80B459
:1003500083B000AF78603960FEE71EF0040F0CBF79
:10036000EFF30880EFF3098071460F4A104700BF92
:1003700080B483B000AF78603960FEE780B400AF2E
:10038000FEE780B400AFFEE780B400AFFEE780B4C4
:1003900000AF00BFBD4680BC70470000950100085B
:1003A000270300084F0300087103000880B400AF62
:0203B000FEE766
:1003B400100D00080000002020000020100D00088F
:1003C4000000001000000010200000202400002085
:0803D400000000100000001001
:1003DC0080B582B000AF786000F03CF880B483B098
:1003EC0000AF786039607B6801221A603B68034A71
:1003FC001A6000BF0C37BD4680BC7047000000205F
:10040C0080B500AF00F02AF8024B034A9A6000BF97
:10041C0080BD00BF00ED00E00000000880B500AF1B
:10042C0000F028F800BF80BD80B400AFBFF34F8F41
:10043C0000BF064BDB6803F4E0620449044B134332
:10044C00CB60BFF34F8F00BF00BFFDE700ED00E0B6
:10045C000400FA0580B500AFFFF7E6FF80B400AFEB
:10046C00034B4FF000629A6000BFBD4680BC7047E2
:10047C0000ED00E080B487B000AF00233B610023A7
:10048C007B610223FB600023BB6002237B60344B47
:10049C009B6803F00C033B613B69082B11D03B6953
:1004AC00082B44D83B69002B03D03B69042B04D0A8
:1004BC003DE02C4B2C4A1A603DE02A4B2B4A1A602B
:1004CC0039E0274B5B689B0D03F00103BB60244BA9
:1004DC005B6803F03F037B60BB68002B0CD0234AA6
:1004EC007B68B2FBF3F31E4A52689209C2F308020E
:1004FC0002FB03F37B610BE01B4A7B68B2FBF3F35B
:10050C00174A52689209C2F3080202FB03F37B619B
:10051C00134B5B681B0C03F0030301335B00FB60A4
:10052C007A69FB68B2FBF3F30E4A136003E00D4BE0
:10053C000D4A1A6000BF0A4B9B681B0903F00F039E
:10054C000B4AD35C3B61074B1A683B6922FA03F3F5
:10055C00044A136000BF1C37BD4680BC704700BF07
:10056C0000380240080000200024F40000127A0039
:10057C00000D000880B582B000AF00F0FFF900F06C
:10058C0013FB012000F008FA032000F005FA022307
:10059C0000220021422000F053FA02230022022103
:1005AC00422000F04DFA0023FB7108E0F97900239A
:1005BC000122442000F044FAFB790133FB71FB79F2
:1005CC00022BF3D900F00EF8054B00221A7000F044
:1005DC0065F9034B1B78002BF6D100F06DF8F3E7AF
:1005EC002300002080B500AF094B00221A700022B6
:1005FC000021442000F086FA00220221442000F061
:10060C0081FA00220121442000F07CFA00BF80BD59
:10061C002100002080B582B000AF1C4B01221A7063
:10062C0001220021442000F06DFA01220221442015
:10063C0000F068FA01220121442000F063FA00F076
:10064C003DFB034603F5A0737B6000F037FB0346CC
:10065C0050333B600BE000BF00F030FB02463B68C0
:10066C009342F9D200220121442000F04BFA00F011
:10067C0025FB02467B689342EDD2002202214420E6
:10068C0000F040FA00BF0837BD4680BD21000020B5
:10069C0080B500AF064B01221A70064B01221A706E
:1006AC0001220221442000F02DFA00BF80BD00BFC2
:1006BC00210000202200002080B584B000AF2A4B1E
:1006CC0000221A7000220021442000F01BFA0022A4
:1006DC000221442000F016FA01220121442000F0EE
:1006EC0011FAF02000F0A8FA00F0E8FA0346F03313
:1006FC00FB6000F0E3FA0346A033BB6000F0DEFAC7
:10070C00034650337B6000BF00F0C2FA0346002B57
:10071C001FD100BF00F0D2FA02467B689342F9D297
:10072C0000220121442000F0EDF900BF00F0C6FAD0
:10073C000246BB689342F9D201220121442000F009
:10074C00E1F900BF00F0BAFA0246FB689342F9D215
:10075C0000BF00220121442000F0D4F900231846E8
:10076C001037BD4680BD00BF2100002080B582B08F
:10077C0000AF154B01221A70144B00221A70002284
:10078C000021442000F0BEF900220121442000F099
:10079C00B9F901220221442000F0B4F900F08EFADC
:1007AC000346A0337B6000BF00F088FA02467B68EA
:1007BC009342F9D200220221442000F0A3F900BF99
:1007CC000837BD4680BD00BF21000020220000205C
:1007DC0080B584B000AF2F4B00221A702E4B002234
:1007EC001A7000220021442000F08CF90022022112
:1007FC00442000F087F901220121442000F082F905
:10080C0000F05CFA0346F033FB6000F057FA034645
:10081C00A033BB6000F052FA034650337B602AE0F1
:10082C0000BF00F04BFA02467B689342F9D20022DB
:10083C000121442000F066F900BF00F03FFA0246A7
:10084C007B68934205D800F039FA0246BB689342A4
:10085C00F3D201220121442000F054F900BF00F032
:10086C002DFA0246BB68934205D800F027FA0246DF
:10087C00FB689342F3D200F021FA0246FB689342E4
:10088C00CED200220121442000F03CF900BF1037E9
:10089C00BD4680BD210000202200002080B500AFA5
:1008AC004FF4C86000F0C8F957E00221422000F074
:1008BC0055F90346002B22D100BF00F0FFF9034687
:1008CC00B3F5A07FF9D90221422000F047F9034685
:1008DC00002B14D1264B01221A70264B1B78002BAF
:1008EC0002D1FFF797FE3EE0224B1B78002B3AD04B
:1008FC00214B1B78002B36D1FFF76AFF33E0002128
:10090C00422000F02BF90346002B26D100BF00F04B
:10091C00D5F90346B3F5A07FF9D90021422000F0A8
:10092C001DF90346002B18D1114B01221A70114BE3
:10093C001B78002B06D0104B1B78002B02D1FFF735
:10094C00A7FE12E00B4B1B78002B0ED00A4B1B782A
:10095C00002B0AD0FFF70AFF07E000F099F90346D5
:10096C00002BA2D002E000BF00E000BF80BD00BFA2
:10097C0023000020210000202200002080B400AFC2
:10098C00044B1B68034A43F00103136000BFBD46D0
:10099C0080BC70470038024080B485B000AF03467D
:1009AC00FB71FB795B09FB73FB7903F01F03BB73D2
:1009BC00FB7B032B36D801A252F823F0D90900088F
:1009CC00EF090008050A00081B0A0008184B1B68F1
:1009DC00BA7B012101FA02F21146154A0B4313604E
:1009EC0021E0144B1B68BA7B012101FA02F211467B
:1009FC00104A0B43136016E00F4B1B68BA7B0121A6
:100A0C0001FA02F211460C4A0B4313600BE00B4B3C
:100A1C001B68BA7B012101FA02F21146074A0B430B
:100A2C00136000E000BF00BF1437BD4680BC7047A8
:100A3C0030380240343802404038024044380240DA
:100A4C0090B486B000AF0446084611461A462346B9
:100A5C00FB710346BB710B467B7113463B71FB79F3
:100A6C00413BFB75FB7D264A52F823303B613B79B9
:100A7C0003F00103FB733B795B08BB733B691B6899
:100A8C00BA795200032101FA02F2D2431A403B69AF
:100A9C001A603B691B687979BA79520001FA02F243
:100AAC001A433B691A603B695B68BA79012101FA08
:100ABC0002F2D2431A403B695A603B695B68F97B8E
:100ACC00BA7901FA02F21A433B695A603B69DB6856
:100ADC00BA795200032101FA02F2D2431A403B695F
:100AEC00DA603B69DB68B97BBA79520001FA02F231
:100AFC001A433B69DA6000BF1837BD4690BC70479B
:100B0C000C00002080B485B000AF0346FB710B468F
:100B1C00BB7113467B71FB79413BFB73FB7B0E4A2C
:100B2C0052F82330BB60BB685B69BA79012101FACA
:100B3C0002F2D2431A40BB685A61BB685B6979798F
:100B4C00BA7901FA02F21A43BB685A6100BF143732
:100B5C00BD4680BC704700BF0C00002080B485B03F
:100B6C0000AF03460A46FB711346BB710023FB73AF
:100B7C00FB79413BBB73BB7B0A4A52F82330BB6009
:100B8C00BB681B69BA79012101FA02F21A40BB79E0
:100B9C0022FA03F3FB73FB7B18461437BD4680BC6B
:100BAC00704700BF0C00002080B500AF4020FFF75D
:100BBC00F3FE1F4B1B681F4A9A621D4B1B681A6879
:100BCC001B4B1B6822F010021A60194B1B681A6829
:100BDC00174B1B6822F4E0621A60154B1B681A68ED
:100BEC00134B1B6822F0E0021A60114B1B681A6849
:100BFC000F4B1B6822F001021A600D4B1B685A69DF
:100C0C000B4B1B6822F001025A61094B1B685A6995
:100C1C00074B1B6842F001025A61054B1B681A69AD
:100C2C00034B1B6822F001021A6100BF80BD00BF9C
:100C3C001C0000209F86010080B483B000AF786058
:100C4C00124B1B681A68114B1B6822F001021A60C8
:100C5C000E4B1B6800225A620C4B1B681A690B4B1B
:100C6C001B6822F001021A61084B1B687A68DA6271
:100C7C00064B1B681A68054B1B6842F001021A6090
:100C8C0000BF0C37BD4680BC704700BF1C00002065
:100C9C0080B483B000AF0023FB71074B1B681B694A
:100CAC0003F00103002B01D00123FB71FB791846E3
:100CBC000C37BD4680BC70471C00002080B400AFD0
:100CCC000B4B1B681B68002B01D100230CE0084B5D
:100CDC001B681B6903F00103002B02D04FF0FF339C
:100CEC0002E0034B1B685B6A1846BD4680BC70472C
:100CFC001C000020000000000000000001020304A2
:040D0C0006070809C5
:100D100020000020000000000024F4000000024039
:100D20000004024000080240000C024000000040A5
:040000050800019559
:00000001FF
